S015000059445F7477726B36306E3531322E73726563DF
S1130000F0FE002021040000B7EF0200B7EF020069
S1130010B7EF0200B7EF0200B7EF020000000000E4
S1130020000000000000000000000000DFEE0200FD
S1130030B7EF02000000000055EF0200B7EF020026
S1130040B7EF0200B7EF0200B7EF0200B7EF02000C
S1130050B7EF0200B7EF0200B7EF0200B7EF0200FC
S1130060B7EF0200B7EF0200B7EF0200B7EF0200EC
S1130070B7EF0200B7EF0200B7EF0200B7EF0200DC
S1130400FFFFFFFFFFFFFFFFFFFFFFFFFEFFFFFFF9
S107041000000000E4
S11304200F481049104A4FF0080333B140F8042B29
S113043041F8042BA3F10103F7E7EFF3088080F3FD
S11304400988EFF3148040F0020080F3148800F070
S11304500DB880F308887047000000000000000019
S113046080E100E080E200E0FFFFFFFFC046C046FD
S1130470C046C04600F000F800F009F8002801D09A
S113048000F00AF8002000F01DF800F023F880B511
S113049000F0B4F8012002BD10B5084979441C31BC
S11304A0074C7C441A34A14206D0081D0A6851182E
S11304B088470146A142F8D110BD00BF0CEC0200F0
S11304C040EC020080B5024800F0CEF8002002BDE6
S11304D09C37030000F09CB958484CF22051C1816C
S11304E04DF62811C18101884FF6FE72114001803A
S11304F070475349534811F58252126852F0010271
S113050011F582531A6041F2040252584FF44073B9
S11305101A4341F204035A504B494FF4A0628A62D1
S11305204FF4A062CA624FF4A0620A644FF4A0625E
S11305304A644FF4A0628A644FF4A062CA644FF420
S1130540A0620A654FF4A0624A654FF4A0628A650E
S11305504FF4A062CA653D494FF4A0620A604FF4AB
S1130560A0624A604FF4A0628A604FF4A062CA603D
S11305704FF4A0620A614FF4A0624A614FF4A06292
S11305808A614FF4A062CA614FF4A0620A624FF418
S1130590A0624A624FF4A0628A624FF4A062CA6207
S11305A04FF4A0620A634FF4A0624A634FF4A0625E
S11305B08A634FF4A062CA6325494FF4A0620A60BB
S11305C04FF4A0624A604FF4A0628A604FF4A062C4
S11305D0CA604FF4A0620A614FF4A0624A614FF40A
S11305E0A0628A615FF08051016670471549086016
S11305F04FF41660886017484860704780B5164805
S11306000068000B10F00F0000280BD1134800689D
S113061030F01900114908601148006830F01900E1
S11306200F49086000F0D9FB00F042FFFFF761FFBB
S11306300C48FFF7DBFF01BD00000000002005406F
S11306400070044000C0004000A0044000B004401A
S113065000C00440010007002480044004F001406D
S113066008F0014000000070F0B583B00500686830
S11306700F30040924016248046062482060624823
S113068020604FF44671200000F054FF04F28C10F7
S11306902900302200F0F8FFC4F89041D4F8940106
S11306A000090001C4F8940101F044F801F0AEF827
S11306B00500002D02D0280000F09BF8D4F8B40106
S11306C0002804D0D4F8B461D4F8985117E0D4F8D1
S11306D09801D82802D2D820C4F89801D4F89801F7
S11306E010F11005280001F0A5F80600002E02D133
S11306F0042000F07EF80221300001F0A7F8290060
S1130700300001F077F9A819401E00090001E063E8
S1130710D825280001F08EF80700002F02D104200C
S113072000F067F80121380001F090F8E819401E44
S11307300009000104F25006B0F1640171613061F6
S113074017F10F0000090001B06170692F490860BA
S113075001F097F90500002D02D0280000F049F8B7
S1130760012104F2BC1001F0F3F9012104F230106C
S113077001F0EEF901F018FA0500002D02D028006E
S113078000F037F80020019000200090012300229F
S1130790E069C16804F2BC2001F06AF80600002E8A
S11307A002D1042000F025F8300001F02DF9D4F82E
S11307B09C5117E0287DC00713D50020019000202C
S11307C000900023AA69E069C168280001F050F88C
S11307D00600002E02D1042000F00BF8300001F0D6
S11307E013F9203528680028E4D12EF061FB00209D
S11307F0FEBD80B501F01CFB01480068FEE7000067
S1130800A400FF1F9024030094240300781BFF1FFF
S11308100746384601F01EFBFBE710B401990400BB
S1130820002802D010F1010F02D141F2047006E059
S113083014EB8200C069186004200860002010BC1A
S113084070470100002802D010F1010F02D141F2DB
S1130850047004E011EB82001968C1610020704744
S11308607047DFF81017097801291BD1C0B200289E
S113087008D1DFF804171E220A70DFF800170A22D5
S11308800A7007E0DFF8F0161F220A70DFF8EC1692
S113089080220A70C0B2002806D1DFF8E406802165
S11308A0017005E0012010E0DFF8D406C0210170DA
S11308B0DFF8CC0600780006FAD4DFF8C406007826
S11308C0800601D4002000E01B207047C0B200283D
S11308D029D1DFF8B00600210170DFF8AC0600680A
S11308E040084000DFF8A0160860DFF8A0062821C1
S11308F00170DFF89C0621210170DFF89806382189
S11309000170DFF8940658210170DFF89006007832
S1130910C0B210F00C000C28F7D1DFF88006007884
S11309204006FAD5FFE77047C0B2002802D001287C
S113093025D049E0DFF84C0600210170DFF84806B5
S1130940006840084000DFF840160860DFF83C0605
S1130950A8210170DFF8380621210170DFF8340680
S113096038210170DFF8300658210170DFF82C06B9
S11309700078C0B210F00C000828F7D124E0DFF8AA
S1130980040600210170DFF80006006840084000FA
S1130990DFF8F4150860DFF8F405AB210170DFF827
S11309A0F00521210170DFF8EC050D210170DFF85D
S11309B0E80540210170DFF8E4050078C0B210F0CA
S11309C00C000828F7D1FFE77047C0B2002802D016
S11309D0012832D063E0DFF8AC0500210170DFF8B4
S11309E0A805006840084000DFF89C150860DFF89F
S11309F0A00521210170DFF89405A8210170DFF81A
S1130A00A005007810F01F00DFF894150870DFF8D7
S1130A10840538210170DFF8800518210170DFF8A2
S1130A207C050078C006FAD4DFF870050078C0B2FF
S1130A3010F00C000828F7D131E0DFF84805002158
S1130A400170DFF84405006840084000DFF83815FD
S1130A500860DFF83C0521210170DFF83005AB2187
S1130A600170DFF83C05007810F01F00DFF8301546
S1130A700870DFF8200500210170DFF81C05002153
S1130A800170DFF818050078C006FAD4DFF80C0509
S1130A900078C0B210F00C000828F7D1FFE77047C7
S1130AA0C0B2012816D1DFF8E40447210170DFF851
S1130AB0E00423210170DFF8CC0400210170DFF889
S1130AC0DC040078C006FAD5DFF8D0040078C0074B
S1130AD0FAD5FFE77047C0B2002802D0012832D00F
S1130AE063E0DFF8A80444210170DFF8A4042121A5
S1130AF00170DFF8AC04007810F01F00DFF8A014D8
S1130B000870DFF8800400210170DFF87C040068BD
S1130B1040084000DFF870140860DFF878043821DA
S1130B200170DFF8740418210170DFF87004007894
S1130B30C006FAD5DFF864040078C0B210F00C00E7
S1130B400428F7D131E0DFF8440447210170DFF8CD
S1130B50400421210170DFF84804007810F01F00E0
S1130B60DFF83C140870DFF81C0400210170DFF882
S1130B701804006840084000DFF80C140860DFF82F
S1130B80140400210170DFF8100400210170DFF863
S1130B900C040078C006FAD5DFF800040078C0B26F
S1130BA010F00C000428F7D1FFE7704770B504007B
S1130BB00025E4B2002C02D0012C02D003E004256D
S1130BC001E00125FFE700F031F80600EDB2F6B2CE
S1130BD00520DFF8D01300FB06102E5CF6B2002EC1
S1130BE006D0022E0ED008D3042E15D00FD318E051
S1130BF02000C0B2FFF76FFF13E02000C0B2FFF780
S1130C004FFF0EE02000C0B2FFF7DFFE09E0200036
S1130C10C0B2FFF789FE04E02000C0B2FFF756FE21
S1130C20FFE7EDB2F6B2B542D0D170BDDFF85C0398
S1130C300078C0B210F0C000002804D0402804D0CE
S1130C4080280BD013E0042012E0DFF8440300787E
S1130C50800701D400200BE0012009E0DFF838030D
S1130C600078400601D4022002E0032000E00020C6
S1130C70704710B50400E4B2032C01D30220A8E0AD
S1130C80E4B2002C03D0022C79D03DD39AE0DFF8F3
S1130C90E4020078022817D1DFF8FC02007810F093
S1130CA0DF00DFF8F4120870DFF8FC02DFF8FC1252
S1130CB001600020FFF77AFFDFF8DC02007850F0D3
S1130CC02000DFF8D4120870DFF8DC02DFF8E0124D
S1130CD00160DFF8E002006830F00D0050F002001F
S1130CE0DFF8D0120860DFF8A002006850F480300A
S1130CF0DFF894120860DFF8C002006850F40020A6
S1130D00DFF8B41208605DE0DFF8680200780228BA
S1130D1017D1DFF88402007810F0DF00DFF87812D2
S1130D200870DFF88402DFF8841201600020FFF706
S1130D303DFFDFF86402007850F02000DFF858121D
S1130D400870DFF86402DFF874120160DFF86402EF
S1130D50006830F00D0050F00200DFF8581208600F
S1130D608948006850F4803087490860DFF84802F9
S1130D70006850F40020DFF84012086022E0864842
S1130D80007810F0DF0084490870874887490160C3
S1130D900120FFF70BFF84485FF440310160854870
S1130DA0006800090001834908607748006850F42E
S1130DB08030754908608048006850F400207E49FE
S1130DC00860FFE72000C0B2FFF74AFD69480470DD
S1130DD0002010BD67480078704780B5FFF77CFBA2
S1130DE040F2FF300078C0B2FF280DD0744840F2C2
S1130DF0FF310978017040F2FE30007868490978C3
S1130E0060F30401664801706748694901606948F4
S1130E10006830F00D0050F00200664908605A483E
S1130E20006850F48030584908606348006850F402
S1130E30002061490860534800210170524800684D
S1130E4040084000504908605148212101704F4832
S1130E50A82101705248007810F01F005049087012
S1130E604C48382101704C48182101704B480078D7
S1130E70C006FBD449480078C0B210F00C00082822
S1130E80F8D14048002101703F4800684008400004
S1130E903D4908603D48A82101703D482121017069
S1130EA03C48382101703C48582101703B48007887
S1130EB0C0B210F00C000828F8D1324800210170AB
S1130EC031480068400840002F4908602F48282115
S1130ED001702F48212101702E48382101702E48BD
S1130EE0582101702D480078C0B210F00C000C2875
S1130EF0F8D12A4800784006FBD52748007850F0FE
S1130F002000254908702F4800684FF400710843F9
S1130F102C49086001BD38B5040000252000C0B28A
S1130F20FFF7A7FE0500ADB2002D02D0280080B265
S1130F3008E000212000C0B200F09AFFC82100F0B0
S1130F4013FE002032BD80B5FFF744FF02BDC0B2DE
S1130F5003280BD2C9B21E2908D2C9B2C0B22822B2
S1130F60194B02FB003050F8210000E000207047CC
S1130F7000000000321CFF1F0A4006400B400640E0
S1130F8008400640005006400480044000400640EB
S1130F900140064004400640054006400640064025
S1130FA003400640EC300300448004400000330159
S1130FB0000013014880044000700440000077776B
S1130FC002400640388004400831030010B5002474
S1130FD00020FFF746FC0400A4B2002C02D020003D
S1130FE080B20AE00120FFF73CFC0400A4B2002C0C
S1130FF002D0200080B200E0002010BDDFF80425FC
S1131000C0B200280AD0022853D02DD3042800F0FF
S11310109A8073D3052800F0BB80DEE0DFF8E80493
S1131020CB0705D54FF4507383614FF45073C361FC
S11310308B0703D5002383610023C361480707D5C9
S113104041F23400805850F4806041F234039850E7
S1131050080707D541F23400805830F4806041F22B
S11310603401885000207047DFF8A004CB0705D571
S11310704FF45073C3604FF4507303618B0703D56F
S11310800023C36000230361480707D541F23400FD
S1131090805850F4006041F234039850080707D593
S11310A041F23400805830F4006041F23401885039
S11310B0D8E7DFF85404CB0705D54FF450738360A9
S11310C04FF45073C3608B0703D500238360002360
S11310D0C360480707D541F23400805850F480506B
S11310E041F234039850080707D541F23400805880
S11310F030F4805041F234018850B3E7DFF80C0437
S1131100CB0705D54FF4507303644FF45073436415
S11311108B0703D50023036400234364480707D5E2
S113112041F23400805850F4005041F23403985096
S1131130080707D541F23400805830F4005041F2DA
S1131140340188508EE7DFF8C803CB0705D54FF488
S1131150507343664FF4507303668B0703D5002323
S1131160436600230366480707D541F228008058E8
S113117050F4806041F228039850080707D541F2E3
S11311802800805830F4806041F22801885069E7D3
S1131190DFF87C03CB0705D54FF4507303624FF49B
S11311A0507343628B0703D5002303620023436219
S11311B0480707D541F22800805850F4006041F2F6
S11311C028039850080707D541F22800805830F4C6
S11311D0006041F22801885044E75FF0FF3042E7A5
S11311E0DFF82013002809D141F23C00405850F0A8
S11311F0006041F23C02505000207047012808D1A1
S113120041F23000405850F0006041F2300250503A
S1131210F2E75FF0FF30F0E710B410F01F02002394
S11312200021040505D5D2B2042A02D35FF0FF30B1
S11312305FE0030505D4D2B2022A02D15FF0FF3089
S113124057E0D2B21A2A26D280B210F47043B3F512
S1131250805F04D1D2B2DFF8BC02105C1CE080B223
S113126010F4C063B3F5806F03D04FF4C063184229
S113127004D1D2B2DFF8A002105C0DE0101FC0B29E
S1131280042801D3002007E0D2B2DFF8900210183E
S113129010F8040C00E00120C0B2002802D15FF075
S11312A0FF3026E0C0B2012801D1002021E0C0B205
S11312B04209012A07D00FD3032A08D005D3052AEF
S11312C009D006D308E0964906E0964904E08F4920
S11312D002E08D4900E08E49C0B210F01F0251F8BF
S11312E0222032F4E062C0B210F01F0041F8202046
S11312F0002010BC70478349002803D0022832D054
S11313001BD346E080484FF4007202604FF4007231
S113131042604FF4007282604FF40072C2608148F0
S11313204FF44072C26541F23C00405850F4805082
S113133041F23C0250500020704775484FF400724F
S113134042604FF4007282604FF40072C2604FF446
S11313500072026141F23C00405850F4005041F2E6
S11313603C025050E7E76F484FF4007202654FF4B7
S1131370007242654FF4007282654FF40072C265D8
S113138041F23000405850F4805041F23002505045
S1131390D1E75FF0FF30CFE75A4AC0B2002827D127
S11313A05B4889B240F243430B40036089B240F288
S11313B043430B40436089B211F48863836089B26C
S11313C040F243430B40C36089B240F243430B40B5
S11313D0036189B240F243431940416141F2300054
S11313E0805850F4003041F230018850002001E070
S11313F05FF0FF3070474349002802D0012811D024
S113140020E041484FF4087202624FF408724262CD
S113141041F23400405850F0400041F23402505040
S11314200020704739484FF4087282624FF4087202
S1131430C26241F23400405850F0800041F234025C
S11314405050EDE75FF0FF30EBE72E4934484FF49E
S1131450806202634FF4806242634FF4806282636D
S11314604FF48062C2634FF4806202644FF480627E
S113147042642C484FF4846202604FF480624260FC
S113148041F22C00405850F0010041F22C0250501F
S1131490002070472448006850F4A02022490860C6
S11314A02248006850F480202049086000207047DA
S11314B01F48006850F478501D49086000207047A8
S11314C0032802D0042805D009E010484FF44071E5
S11314D0816404E00E484FF44071C166FFE70020C8
S11314E070470849002802D05FF0FF3008E041F25D
S11314F03C00405850F0010041F23C0250500020A2
S1131500704700000070044000C0044000B0044074
S113151000D00440603003007C30030098300300A6
S11315200090044000A0044004800440348004403F
S1131530388004400429C0F08C800200D20703D50F
S113154000220270401C491E0200920703D50022AB
S11315500280801C891E8A0930E000230360001D7C
S113156000230360001D00230360001D00230360AB
S1131570001D00230360001D00230360001D0023E1
S11315800360001D00230360001D00230360001D91
S113159000230360001D00230360001D002303607B
S11315A0001D00230360001D00230360001D0023B1
S11315B00360001D00230360001D521E002ACCD1CD
S11315C08A0812F00F02012A40D042D3032A37D0EE
S11315D039D3052A2ED030D3072A25D027D3092A78
S11315E01CD01ED30B2A13D015D30D2A0AD00CD32A
S11315F00F2A01D003D32CE000220260001D002238
S11316000260001D00220260001D00220260001D15
S113161000220260001D00220260001D0022026000
S1131620001D00220260001D00220260001D002235
S11316300260001D00220260001D00220260001DE5
S113164000220260001D00220260001D00220260D0
S1131650001D0A00920702D500220280801CC907DF
S113166001D500210170704762B38B0708D0521E68
S113167011F8013B00F8013B00F024808B07F6D100
S1131680830740F0208000BF103A07D330B4B1E89C
S11316903810103AA0E83810F9D230BC530724BFF0
S11316A0B1E80810A0E8081044BF51F8043B40F822
S11316B0043BD20724BF31F8022B20F8022B44BF8D
S11316C00B7803707047083A07D3B1E80810083A5A
S11316D040F8043B40F804CBF7D25307E4E770B476
S11316E08169096800230024002902D14FF42440B1
S11316F01EE0406800E00069002814D0826806E01B
S1131700012615F01F0516FA05F52C43D268002AA8
S1131710F1D09568202DF3D2012615F01F0516FA95
S113172005F52B43F2E7C1F82431C1F8204100202C
S113173070BC704710B53148046843F6F830208215
S11317404FF4C57060820820206001206060022090
S1131750E0810F2060810F20A081D4F89C01002833
S113176002D10120FFF745F80120C4F8000100F080
S113177061F904F25000E061E18A6183E18A8184C5
S1131780D4F88C11090441F47F4151F0FF01C16088
S113179003218160002104F2241000F06FFB00217A
S11317A004F2641000F06AFB0021D4F89C010022CA
S11317B005E0C368994200D2C168521C2030036816
S11317C0002B03D04FF6FF739A42F2D3C4F8FC10F7
S11317D004F2BC200A4A0260E0228260094A0261E3
S11317E0094A4260491CC160002104F2041000F05F
S11317F045FB0120C4F8100110BD00BFA400FF1F69
S1131800030000800030030089DB020080B5084833
S1131810026802F218310800C2F8E80201F230014D
S1131820D2F89421521A00F02FFB002002BD00BF11
S1131830A400FF1F80B5044909680023D1F8E822F9
S1131840503100F053FB02BDA400FF1F002803D059
S11318500C384181012000E00020704703480068F3
S1131860D0F8E802C06A704700000000A400FF1F1F
S11318702DE9F24F84B0040015001E000E9FDDF820
S11318803CB06A48D0F80080D8F8FC00E16888428F
S113189008D208F2BC20844204D00E2000F028FCB8
S11318A00020A4E0002F16D0BBF5BC7F04D8022092
S11318B000F01EFC00209AE000233A0002A95846DA
S11318C000F030FC81460298BBEB000B002E1BD0CD
S11318D0BBF1200B18E0D4F808B0BBF1D90F01D24A
S11318E05FF0D80B1BF10F005FEA101B5FEA0B1BC4
S11318F0002E02D01BF1200000E0584600230022F5
S113190002A900F00FFC8146B9F1000F04D10A20AE
S113191000F0EEFB00206AE00320C9F80800D9F8C3
S11319201000002802D0D9F810A002E0029810EBB1
S1131930090A002E0DD0CDF800A01AF1200A009853
S113194021002022FFF7A0FE009C206850F00040F8
S113195020605946504600F04DF8E0687FF00F01D2
S1131960D8F8202001FB0020C9F81C00C9F8200089
S11319708189A9F824106169C9F82810002F05D0BD
S1131980D9F8281051F02001C9F828100195808950
S1131990009023005A465146484600F02BFC00288C
S11319A001D1002023E0C9F868402068C9F8640028
S11319B0D8F88002C9F87400D8F88402C9F878000D
S11319C0D8F88802C9F87C000498C9F86000002F90
S11319D00CD14946484600F041FC002E02D0BAF131
S11319E0200AFFE74946504600F038FC484605B057
S11319F0BDE8F08F8908491C02E00D4A0260001D11
S1131A00491E0029F9D1704710B408490968C26910
S1131A1053684C6A944200D24A6202218160436056
S1131A20196801601860506010BC7047A400FF1F63
S1131A306B6174732C48006800F28C114A69082A9F
S1131A4003D3072207234B6104E0002A02D10122B9
S1131A5001234B61510111F0E001C182002003E038
S1131A602249C0224254401C6A28F9D3002005E0D0
S1131A701F495FF0FF3241F82020401C0428F7D3AF
S1131A80704770B51848046800202062D4F8FC0040
S1131A90861C300100F0E6FB0500002D01D1042076
S1131AA021E005212800FFF7D1FE05E0C020A88130
S1131AB0206AA860256210353000461E00280FD029
S1131AC02D606D60EE81D4F8A00180190728EDD255
S1131AD0D4F8A0018019400110F0E000A881E7E7E4
S1131AE0206A6062002070BDA400FF1F00E400E0D3
S1131AF080E100E070B50400150013480668A16198
S1131B00002114F1080000F0B9F900F091F9002D5A
S1131B1013D1D6F8240100E0006806F224118842AB
S1131B2006D0A042F8D100F0A9FB4FF4826009E08E
S1131B30210006F2241000F0BDFB0448606100F0AF
S1131B409DFB002070BD0000A400FF1F6D73776C27
S1131B5080B500230022FFF7CDFF02BD80B500232E
S1131B600122FFF7C7FF02BDB0FBF1F0401E82491E
S1131B700860704780B500F077F90021C0B200F02A
S1131B8077F9C821FFF7F0FF7C48072101607C4802
S1131B90006850F080507A4908607A48006850F034
S1131BA080407849086001BD10B542F2620000F03F
S1131BB0B1FB5FF00051002000F0BCFBFA210020D3
S1131BC000F0C6FB002840F0B7806F4800F0CAFB65
S1131BD00F2000F0CFFB00220FF261110F2000F064
S1131BE0D1FB002801D12620A6E0FFF7C3FF012086
S1131BF0FFF791F9002801D026209DE0FFF7E6F9D0
S1131C00002801D0262097E00020FFF784F900285F
S1131C1001D0262090E05D4804685D48C4F87C014A
S1131C20C82000F007FCD4F87C0100F00BFC002174
S1131C300FF2111000F00EFC00F016FC00F01EFC78
S1131C40002879D1534802685249534800F05AFC9D
S1131C50504802684F49514800F000FE504802685D
S1131C604F49504800F04EFC4D4802684C494E48DC
S1131C7000F0F4FD4D4802684C494D4800F042FC28
S1131C804A48026849494B4800F0E8FD4A4802685E
S1131C9049494A4800F036FC4748026846494848E2
S1131CA000F0DCFD474802684649474800F02AFC3A
S1131CB0444802684349454800F0D0FD444802685E
S1131CC04349444800F01EFC4148026840494248E8
S1131CD000F0C4FD4149424800F0D8FE3F49414864
S1131CE001F0E0FA4049414801F0BAFE3E4940485B
S1131CF002F02AFC3F49404801F0B2FE3D493F480A
S1131D0002F022FC3E493F4801F0AAFE3C493E480D
S1131D1002F01AFC3D4802F0FFFE3D493D4803F045
S1131D2041F83D493D4803F04EFC3D493D4804F02F
S1131D304DF904F0E9FF002010BD000080B504F067
S1131D40FDFF01BD00220C4800680002000A401C8F
S1131D50354909680902090A344B1B685B0104D53B
S1131D60314909680902090A0200002900D1010069
S1131D70401A10187047000014E000E010E000E082
S1131D801CED00E020ED00E000000000A400FF1FB7
S1131D9000530700B8320300402F0300482F03000C
S1131DA0D8320300502F0300582F0300F8320300E9
S1131DB0602F0300682F030018330300702F030003
S1131DC0782F030038330300802F0300882F03008B
S1131DD058330300902F0300982F0300A43203000C
S1131DE0A02F0300A82F0300A8310300B02F030085
S1131DF0B82F0300D8310300C02F0300C82F0300FD
S1131E0008320300D02F0300D82F0300E02F030073
S1131E1090310300E82F030038320300F02F030051
S1131E2084320300F82F030018E000E004ED00E022
S1131E3007480068C169496D002902D1C18A81F34C
S1131E401188C169496D491CC0694165704700BF6B
S1131E50A400FF1F80B5C046C046024A11001820E6
S1131E60ABBEFBE72600020080B5FFF76CF802BDAD
S1131E7080B5C9B2C0B2FFF76AF802BD0060406025
S1131E80002202814181704738B504001548056875
S1131E90501800090001206111F10F000009000130
S1131EA0E060E0622169091A0160002181604460F8
S1131EB06061A061E0612062FFF7BAFFD5F8DC023F
S1131EC0002804D1002105F2DC20FFF7D7FF210010
S1131ED005F2DC2000F0EEF900F0D0F90248A06031
S1131EE0200032BDA400FF1F70656D6C2DE9F8431E
S1131EF006000C0091461D005FF00008D9F80800A8
S1131F007A49884204D0382000F0F2F800206AE0D0
S1131F100C36102E00D2102616F10F0006093601D9
S1131F20FFF786FFD9F8147001E0B846BF68002FA8
S1131F3053D0C9F8187000F0A1F9FFF779FFD9F868
S1131F401870D9F81400874200D1B8463868B042F6
S1131F50EBD3811B102908D3F0190160C0F8049059
S1131F60B9688160B8603E6001E00600B868D9F8DD
S1131F7014108F4202D1C9F8140001E0C8F8080017
S1131F80D9F81400C9F81800D9F81400C9F81C00CD
S1131F90D9F81400C9F82000D9F80C00C9F82400B5
S1131FA0D9F80C00C9F82800E0683881002078814D
S1131FB0C7F80490D9F82C00B84201D2C9F82C70A3
S1131FC000F05CF9002D05D0B6F10C0117F10C00FE
S1131FD0FFF7B0FA17F10C0005E000F04FF9042008
S1131FE000F086F80020BDE8F2832DE9F84380462E
S1131FF00D001600089F5FF000091C00A0683B4913
S1132000884204D0382000F073F800206BE018F107
S11320100C08B8F1100F01D25FF0100818F10F008E
S11320205FEA10185FEA0818FFF702FF606901E031
S113203081468068002850D0A06100F01FF9FFF7A6
S1132040F7FEA0696169884200D181460168B5F153
S11320500C0210F110039A42EAD30A1818EB050394
S11320600C3B9A42E4D3B5F10C02B2EB000CB1EB99
S11320700801B1EB0C03C0F800C0102B07D318EB18
S113208002010B604C6083688B60816002E013EB9B
S113209008088168C9F80810C2F800809160616975
S11320A0A1616169E16161692162E1686162E1687C
S11320B0A162F1681181002151815460E16A814279
S11320C000D2E06200F0DAF8002F04D0B8F10C017D
S11320D02800FFF72FFA280005E000F0CFF80420CD
S11320E000F006F80020BDE8F283000070656D6C16
S11320F00B490A68118B002902D0516BC96801E0B1
S1132100D169C96D002801D0002907D1138B002B98
S113211002D0526BD06001E0D269D06508007047EC
S1132120A400FF1F70B506001400A020304A1568F3
S1132130B5F80C214FF6FE739A4201D3002055E006
S11321400860002C04D001002000FFF7F3F91CE024
S113215000F088F80400002C03D0300000F0E0F810
S11321602061002C01D1200040E02069002804D126
S1132170200004F053FE002038E024212000FFF763
S113218065FB25212069FFF761FBD5F81061D5F8BF
S11321901411D5F88C01B6B256EA0040E06000296B
S11321A002D105F2041101E001F26C0114F16C0298
S11321B005F2041004F0B0FE20000100C86EB0F176
S11321C06C021000761CB6B2002E00D1012605F276
S11321D004139A4204D0D26892B2B6B2B242ECD09E
S11321E0C5F81411B6B2C5F81061200070BD00BF67
S11321F0A400FF1F2DE9F0411C00069D079E012746
S11322005218521E12091201B2F1640802610F3110
S1132210090909018161C0F8148064214046FFF76F
S113222089F90020C8F80000C8F804500A48C8F822
S11322304000C8F82C60606850F00100C8F8440001
S11322405FF08070C8F848007FF00200C8F82800EA
S11322503800BDE8F08100BFE5DD02000C38C96834
S11322600181704780B5044909680123D1F8E82247
S1132270C969FFF73BFE02BDA400FF1F0C480068BC
S1132280C169496D002911D0C169496D491EC269EE
S1132290516500290AD1018B002904D0406B806864
S11322A080F3118802E0408B80F31188704700BFEF
S11322B0A400FF1F38B504000D00FFF7B9FD6089C5
S11322C0002807D020896189884203D3FFF7D6FF0D
S11322D000200DE060680068286061680D60616836
S11322E0696045602089401C2081FFF7C7FF0120F9
S11322F032BD50F8041B61B150F8042BD30744BF1E
S1132300A9F101039A18002342F8043B091FFAD1EA
S1132310EFE770470149096808817047A400FF1F6F
S113232080B50A4909680023D1F8E822C969FFF792
S1132330DDFD02BD80B5054A126800230093D2F882
S1132340E832D269FFF751FE02BD0000A400FF1F6E
S113235010B504F001FE0400002C01D104F038FE95
S1132360200010BD02490968014A10600800704746
S113237008ED00E002490968C1F87001704700BF28
S1132380A400FF1F2DE9F04104000D0016002748AA
S11323900768B86B002804D11820FFF7A9FE0020B5
S11323A042E0F86A844202D3386BA04204D214207B
S11323B0FFF79EFE002037E0FFF73AFDF86A201A87
S11323C0C008B96B51F8208001E0D8F81080B8F14A
S11323D0000F03D0D8F80000A042F6D1B8F1000FE6
S11323E017D11420FFF726FA804623214046FFF731
S11323F02DFAF86A201AC008B96B51F82000C8F801
S11324001000F86A201AC008B96B41F82080084F00
S113241001E0D8F80470C8F80040C8F80450C8F8BF
S11324200C60FFF72BFF3800BDE8F081A400FF1F0C
S113243045DB020002490968C1F87801704700BF12
S1132440A400FF1F02490968C1F88001704700BF5A
S1132450A400FF1F034A1268C2F88401C2F888115D
S1132460704700BFA400FF1F0348006840084000F5
S1132470014908600020704700D0004080B504483E
S11324800068012100F25820FFF762FB02BD00BF83
S1132490A400FF1F10B400230024002917D0002A31
S11324A015D01301B1FBF3F3002B0BD01C0104FB7B
S11324B01211540814EB4101B1FBF2F4202C01D3A6
S11324C05B1C0024B3F5005F01D316200EE0190A4B
S11324D011F01F0101704370817A11F0E0018172E3
S11324E0817A14F01F0211438172002010BC7047DE
S11324F0C17851F00C01C1707047C17811F0F3013B
S1132500C170704700B585B0049203910FF2711148
S113251002910FF25D1101910FF2411100910FF23E
S113252029130FF2F5020FF20D0104F059FD05B065
S113253000BD00002DE9F04106000F007568280079
S1132540C0B204F0EBFF0400002C01D12B2061E0A9
S1132550542005F009F88046B8F1000F01D1042099
S113256058E0C7F80080C8F82040404631002022D7
S1132570FFF78AF8D8F8087015263100C9B2280088
S1132580C0B2FEF73BFD04212800C0B2FEF736FDC1
S1132590D8F80C2039002000FFF77CFF0020A07041
S11325A0E07810F0FD00E070A07A10F03F00A07217
S11325B000202072002060720020A071207CC0F3F3
S11325C00210C0B2002802D10020E07407E001200C
S11325D0217CC1F30211491C8840401EE074012093
S11325E06075607C50F0C0006074207C50F08800FE
S11325F02074F00603D52000FFF77AFF02E02000E4
S1132600FFF77BFF300704D508212800C0B2FEF78E
S1132610F5FC0020BDE8F08170B504000D0004262F
S113262004216068C0B2FEF7E9FC286A0021C17089
S1132630300704D508216068C0B2FEF7DFFC28002B
S113264004F0ECFB002070BD016A0A799206FCD507
S1132650426B521C4263C87970470000026A1379C6
S11326601B06FCD5D171816B491C81637047000046
S1132670006A807C400601D4012000E000207047FD
S113268070B5050014002E6AC91E00F0D08040F613
S1132690FF40091A00F09780491E2DD0491E2ED004
S11326A0491E37D0491E4ED0891F1BD0491E11D058
S11326B0891E00F0C380491E70D0491E62D0091FD4
S11326C052D0491E57D0491E00F09D80491E00F08B
S11326D0A780B6E0B07810F0100000090830206040
S11326E0002070BDB07830F010002168092901D1B4
S11326F050F01000B070F3E7E8682060F0E7A868D5
S1132700226801003000FFF7C5FE0028E9D12068E7
S1132710E860E5E7286B2060241D686B2060241DB9
S1132720A86B2060241DE86B2060241D286C2060A9
S1132730241D686C2060241DA86C2060241DE86C96
S11327402060241DCCE7002028630020686300205B
S1132750A8630020E8630020286400206864002047
S1132760A8640020E864BBE73079C0F3C01010F01F
S113277001002060B4E73079C0F3401010F001008C
S11327802060ADE70120B178890705D5B078C0078E
S113279001D5022000E003202060A1E7B078800882
S11327A080002168012904D00BD3032906D002D369
S11327B007E0B07094E750F00300FAE750F002002D
S11327C0F7E70C208DE7207880060BD56868FEF7C4
S11327D077FE707B10F0F6007073707B50F002008F
S11327E070730FE02078000708D5707B10F0FD00AF
S11327F07073707B50F00900707303E0707B10F00D
S1132800F40070736CE72068012804D1F07810F0AC
S1132810FB00F07003E0F07850F00400F0705FE724
S11328203079002801D1012000E0002058E7B07C75
S11328300006FCD530794006FCD551E70120206024
S11328404EE740F609204CE7C17851F02C01C170E5
S11328507047C17811F05301C170704700B585B05D
S1132860039202916F4901910FF2251100910FF229
S113287091030FF2AD020FF20D0104F081FE05B0D9
S113288000BD0000F8B5040065690A0014F11801E0
S11328902800FFF74FFE002830D1A669376AF87880
S11328A010F07700F870286905F072F9F062286971
S11328B005F09EF9B062F87810F07700F870220005
S11328C00FF2E9012869FFF75DFD7062F87810F0F6
S11328D07700F87022000FF281016869FFF752FD5A
S11328E070620122A969C9B2286905F083F901223D
S11328F0E969C9B2686905F07DF90020F2BD0000FC
S113290070B504000D002E6A29002000FFF784FE34
S1132910EA6A696A2069FFF735FD002070BD00008E
S113292070B504001425266A04216068C0B2FEF75D
S113293065FBE80603D53000FFF786FF02E03000B0
S1132940FFF787FF280704D508216068C0B2FEF7A7
S113295055FB002070BD00008069016A026B521CA7
S1132960026309790A0702D5826C521C8264CA0781
S113297002D5026C521C02644A0702D5026D521C35
S11329800265890702D5416C491C41647047000007
S11329908069026A13791B06FCD5D171816B491CCD
S11329A08163D07850F08000D07070471CB5846982
S11329B0216A0A79920621D5C97900910099AA2938
S11329C003D01A49097801290CD119490978164A02
S11329D0009B8B5416490978491C154A11701349F8
S11329E001220A700099C9B205F05AF8002802D1F0
S11329F0E06C401CE064606B401C60630C48007831
S1132A0008280DD10A4800210170084800210170EE
S1132A1001A9084805F03EF90121019805F0B2F931
S1132A2013BD0000812600006000FF1F341CFF1F3F
S1132A30331CFF1F50360300F0B4002600225FF061
S1132A40FF35002317E0DFF8447457F82370DFF8EC
S1132A5040C45CF824C00CFB07F74F433F1A002F17
S1132A6000D57F42AF4202D23D001E002200641C0A
S1132A70402CE8D35B1C032B01D20024F8E7B001FF
S1132A80C0B212F03F010843F0BC7047E0B50291B8
S1132A900FF2191101910FF2894100910FF2F933EC
S1132AA00FF2D1020FF2090105F0DCF90EBD0000AE
S1132AB0F8B504000F00207805F08CFA0500002D0D
S1132AC002D14AF6021053E05C2004F04DFD0600EA
S1132AD0002E01D104204BE040F20B413000FEF700
S1132AE0B5FE2078FEF787FC3E60300021001422FA
S1132AF0FEF7CAFD75610020B0610020F06100207E
S1132B003062607886F82400002086F825000020D2
S1132B1086F82600002086F827000020B0620020F6
S1132B20F06200203063002070630020B063002056
S1132B30F06300203064002070640020B064002042
S1132B40F06400203065002070650020B06500202E
S1132B50A8700020E870A078400028706168CD4813
S1132B60FFF76AFF6870A87850F08000A870002012
S1132B70F2BD000010B50400002901D0002C02D1E0
S1132B804AF6031010E04869C178890602D54AF66E
S1132B90011009E000218170FF21C170A06904F0D7
S1132BA03DF90020A061002010BD000070B588B080
S1132BB00300160000245D69C91E36D040F2FE30C1
S1132BC0091A00F0DE80491E00F0EC80491E00F076
S1132BD0B980491E00F0C180491E00F0C980491E19
S1132BE000F00981491E00F00F81491E00F0F180B8
S1132BF0491E00F0F780491E00F09280491E3ED025
S1132C00491E59D0491E00F00881491E00F00E816A
S1132C10491E00F01C81491E00F08A80491E00F004
S1132C208C80491E00F020812CE1E8788DF80000AA
S1132C30A878C00609D59DF8000010F0A00020284F
S1132C40F3D0D86B196C8842EFD1186CD86393F821
S1132C50270080070BD59DF80000800607D40020CC
S1132C6083F8270000209862072083F82500002EAF
S1132C7004D09DF8000010F00100306002E14AF633
S1132C800114A878800616D593F82500022803D1EC
S1132C90D86B196C88420AD093F82500032802D116
S1132CA0986A002803D093F82500072803D101204F
S1132CB083F825000024E5E0A87810F0E700A87068
S1132CC0E87850F01200E87000209862002083F841
S1132CD02700002083F82500186B5863A878800625
S1132CE003D428798DF8000003E0A87810F0DF0001
S1132CF0A870E8788DF800000DE09DF800008007CA
S1132D0006D5E87850F00200E87028798DF80000C4
S1132D10E8788DF800009DF800008006EDD4B1E05D
S1132D20002E02D14AF6031401E030689862A9E04B
S1132D30A87810F07F00A870A4E0A87850F0800074
S1132D40A8709FE093F82500002802D04AF60114E9
S1132D5002E0002083F8240094E093F82500002882
S1132D6002D04AF6011402E0012083F8240089E02D
S1132D70002E02D14AF6031402E093F824003060D6
S1132D8080E0002E02D14AF603140AE0E8788006B7
S1132D9002D54AF6011404E031683E48FFF74CFEC0
S1132DA068706FE0002E02D14AF6031410E06878D0
S1132DB08009364951F82010687810F03F00344AF1
S1132DC052F82000334A00FB01F0B2FBF0F030600F
S1132DD058E0002E02D14AF6031402E0306883F86A
S1132DE026004FE0002E02D14AF6031402E093F8C5
S1132DF02600306046E0002E02D14AF6031402E0B9
S1132E003068400028703DE0002E02D14AF60314D9
S1132E1002E028784008306034E0002E02D14AF6FF
S1132E20031402E093F8250030602BE0002E02D159
S1132E304AF603140AE001A813F144011822FEF72C
S1132E4023FC300001A91822FEF71EFC1AE0002022
S1132E505864002098640020D8640020186500207D
S1132E605865002098650DE0002E02D14AF603143F
S1132E7007E0E878800602D50120306001E00020F8
S1132E803060FFE7200008B070BD00004435030047
S1132E9050350300006CDC0238B58469606994F82D
S1132EA0273053F0010384F8273094F82530DBB23F
S1132EB0002B02D0DBB2012B2CD1032584F8255042
S1132EC094F82450002D25D1857855F0100585708F
S1132ED0C57855F00205C570DBB2012B04D18378A7
S1132EE053F00403837003E0837853F0200383706A
S1132EF094F8273053F0020384F8273094F82630EE
S1132F005B0053F001030371E36C5B1CE364C3785F
S1132F109B07FCD513000A00210000F043F832BDE2
S1132F2038B58469606994F8273013F0FE0384F897
S1132F30273094F82530DBB2002B02D0DBB2012B12
S1132F402AD1022584F8255094F82450002D23D149
S1132F50857855F010058570C57855F00205C57063
S1132F60DBB2012B04D1837853F00403837003E0B4
S1132F70837853F02003837094F8273053F00203CE
S1132F8084F8273094F826305B000371E36C5B1CF3
S1132F90E364C3789B07FCD513000A00210000F00A
S1132FA001F832BD78B40400002001E00300401CA5
S1132FB08342C0F07481E578A678B60611D49842AD
S1132FC000F06E8191F82760B6070AD5AE0608D4E2
S1132FD0002281F8272000228A62072281F8252016
S1132FE05EE1AE07E7D591F8276056F0020681F856
S1132FF02760A678B60640F19480A678F60651D5E7
S1133000ED070BD5E37853F00203E370072381F84F
S113301025308B6D5B1C8B650300C8E791F8255048
S1133020022D12D191F82750ED070CD49842BED24C
S1133030E57855F00205E57015782571521CCD6CC4
S11330406D1CCD64B3E70300B1E791F82550032D5F
S113305026D191F82750ED0720D5A57815F0EF0576
S1133060A5708D6A012D04D1A57855F00805A570C9
S113307003E0A57815F0F705A570E57855F002058D
S1133080E5708D6A002D04D1072381F825300300F3
S11330908DE725798DF80050401E88E7030086E708
S11330A0030084E791F82550032D38D191F8275077
S11330B0ED0732D58D6A002D2FD09842BFF477AF3B
S11330C0E57855F00205E5708D6A6D1E8D628D6A96
S11330D0012D04D1A57855F00805A57003E0A57865
S11330E015F0F705A5708D6A002D03D1A57855F06C
S11330F01005A57025791570521C8D6A002D08D114
S1133100A37813F0EF03A370072381F82530431C41
S113311018008D6C6D1C8D6449E7030047E70300BC
S113312045E7EE060AD5E37853F01003E37006236F
S113313081F825300B6D5B1C0B6503006E064AD5C8
S113314091F82460002E02D14E6D761C4E656D07F9
S11331501AD5052581F8255091F82750ED0711D48B
S11331609842BFF424AFA57855F01005A570E57812
S113317055F00205E57015782571521CCD6C6D1C57
S1133180CD6414E7030012E7042581F8255091F873
S11331902750ED071DD500281BD18D6A002D18D0AE
S11331A0A57815F0EF05A570E57855F00205E570F2
S11331B08D6A012D04D1A57855F00805A57003E0AA
S11331C0A57815F0F705A57025798DF80050401EF7
S11331D0EDE60300EBE6EE063FF5E8AEA678F6066C
S11331E029D5ED070BD5E37853F00203E3700723E9
S11331F081F825308B6D5B1C8B650300D7E691F855
S11332002550022D03D091F82550052D11D191F8A8
S11332102750ED070DD49842BFF4C9AEE57855F0B8
S11332200205E57015782571521CCD6C6D1CCD64BA
S1133230BDE60300BBE691F82550032D03D091F8B9
S11332402550042D29D191F82750ED0725D58D6AF5
S1133250002D22D09842BFF4AAAEE57855F00205BD
S1133260E5708D6A6D1E8D628D6A012D04D1A5787D
S113327055F00805A57003E0A57815F0F705A570CD
S11332808D6A002D02D1072581F825502579157006
S1133290521C8D6C6D1C8D6489E6030087E6180052
S11332A072BC7047E0B50291064901910FF21921F1
S11332B000910FF21D130FF2C1020FF20D0104F081
S11332C0A5FE0EBDAD2B00002DE9F04105006F6990
S11332D00A0015F118013800FFF7EAFB0400002C7E
S11332E001D0200045E0AE697569387804F082FEAB
S11332F08046B8F1000F02D14AF6021039E0C6F850
S113330020803869FEF796FAF062F06A002801D14D
S113331004202EE0F868FEF78DFAB063B06B002845
S113332006D1F06A03F07AFD0020F062042020E068
S113333040F20941F06AFEF789FA40F20A41B06BA3
S1133340FEF784FA404604F023FCF06132000FF2E9
S11333505D214046FFF716F8B0610122397A5FFA21
S113336088F8404604F046FCA87850F04000A87065
S11333702000BDE8F081000070B505000C00002CB1
S113338001D0002D02D14AF6031020E06069C17813
S1133390890602D54AF6011019E000218170FF2147
S11333A0C1706E69E269A169206AFEF7EBFFA86942
S11333B003F034FD0020A861E06A03F02FFD002033
S11333C0E062A06B03F02AFD0020A063002070BD22
S11333D02DE9F04182B00F00904684696569FEF7DB
S11333E027FD206A04F042FCFEF748FF00260DE0AA
S11333F0E06A616B4A1C6263085C38707F1C606B16
S11334002169884201D300206063761C464503D2BB
S1133410606B216B8842EBD194F8270050F00100D7
S113342084F8270094F825008DF800009DF800002A
S1133430002803D09DF8000001282DD1032084F832
S1133440250094F82400002826D1A87850F0100014
S1133450A870E87850F00200E8709DF80000012898
S113346004D1A87850F00400A87003E0A87850F0C4
S11334702000A87094F8270050F0020084F8270078
S113348094F82600400050F001002871E06C401CC4
S1133490E064E8788007FCD5A87880060ED494F818
S11334A0270080070AD5E878800607D4002084F82E
S11334B027000020A062072084F82500206A04F079
S11334C0C5FB3000BDE8F6812DE9F0410C00150084
S11334D086697769FEF7ACFC306A04F0C7FBFEF737
S11334E0CDFE5FF0000807E0F16BB26B23788B54DC
S11334F0641CF06318F10108A84508D2F06B401C65
S1133500F168884200D30020316C8842ECD196F8EF
S1133510270010F0FE0086F8270096F82500002802
S113352001D0012829D1022186F8251096F824100B
S1133530002922D1B97851F01001B970F97851F00D
S11335400201F970012804D1B87850F00400B87071
S113355003E0B87850F02000B87096F8270050F0D7
S1133560020086F8270096F8260040003871F06CB7
S1133570401CF064F8788007FCD5B87880060ED437
S113358096F8270080070AD5F878800607D400202B
S113359086F827000020B062072086F82500306AEC
S11335A004F054FB4046BDE8F081000010B582B041
S11335B004006069C178626C521C6264827892066D
S11335C040F1C2808278D20665D5C9070CD5C1788E
S11335D051F00201C170E06B2064072084F82500DB
S11335E0A06D401CA065ABE194F82510022921D1FF
S11335F0E16B226C914219D094F8271011F0030169
S1133600022913D1C17851F00201C170A16B226C5F
S1133610531C2364515C0171206CE168884201D31E
S113362000202064E06C401CE06489E1206A04F01E
S11336301DFB85E194F82510032928D194F827105F
S113364011F0030103291ED1817811F0EF0181707B
S1133650A16A012904D1817851F00801817003E045
S1133660817811F0F7018170C17851F00201C170C5
S1133670A16A002903D1072084F8250060E10079BC
S11336808DF800005CE1206A04F0F0FA58E1206A49
S113369004F0ECFA54E194F82510032950D194F87D
S11336A0271011F00301032946D1A16A002943D050
S11336B0216B491C8DF800109DF80010226991427D
S11336C002D300218DF800109DF80010626B914226
S11336D003D1206A04F0CAFA32E1C17851F0020140
S11336E0C170A16A491EA162A16A012904D181782D
S11336F051F00801817003E0817811F0F7018170C5
S1133700A16A002903D1817851F010018170216BE5
S1133710E26A03798B549DF800102163A16A0029A1
S113372006D1817811F0EF018170072084F825001B
S1133730A06C401CA06403E1206A04F097FAFFE047
S1133740206A04F093FAFBE0CA0609D5C27852F065
S11337501002C270062284F82520226D521C2265B4
S11337604A065DD594F82420002A02D1626D521CC9
S11337706265490728D5052184F8251094F8271097
S113378011F0030102291BD1E16B226C914217D085
S1133790817851F010018170C17851F00201C1703B
S11337A0A16B226C531C2364515C0171206CE16891
S11337B0884201D300202064E06C401CE064BFE038
S11337C0206A04F053FABBE0042184F8251094F82D
S11337D0271011F0030103291ED1616B226B914262
S11337E01AD1A16A002917D0817811F0EF018170F4
S11337F0C17851F00201C170A16A012904D1817814
S113380051F00801817003E0817811F0F7018170B3
S113381000798DF8000093E0206A04F027FA8FE025
S1133820CA0600F18A808278D20638D5C9070CD539
S1133830C17851F00201C170E06B2064072084F864
S11338402500A06D401CA0657AE094F8251002299B
S113385003D094F8251005291DD1E16B226C914207
S113386019D094F8271011F00301022913D1C1785B
S113387051F00201C170A16B226C531C2364515C92
S11338800171206CE168884201D300202064E06C5F
S1133890401CE06454E0206A04F0E8F950E094F835
S11338A02510032903D094F82510042941D194F854
S11338B0271011F0030103293BD1A16A002938D054
S11338C0216B491C8DF800109DF80010226991426B
S11338D002D300218DF800109DF80010626B914214
S11338E003D1206A04F0C2F92AE0C17851F0020140
S11338F0C170A16A491EA162A16A012904D181781B
S113390051F00801817003E0817811F0F7018170B2
S1133910A16A002902D1072184F82510216BE26AEB
S1133920007988549DF800002063A06C401CA064BA
S113393006E0206A04F09AF902E0206A04F096F99D
S113394094F8270050F0020084F8270013BD10B447
S113395050F8041B81B102681218001D50F8043B92
S1133960DC0744BFA9F10104E31852F8044B43F8FF
S1133970044B091FF9D1EBE710BC70472DE9F04364
S11339805FF0010C002300245FF0FF35002600E007
S1133990761C042E24D200271EE002FB00FEDFF872
S11339A0D48758F82680DFF8D09759F8279009FB78
S11339B008F8BEFBF8FEB1EB0E0EBEF1000F01D508
S11339C0DEF1000EAE4503D2754633003C0094464A
S11339D0521C032AE1D37F1C102FD9D20122F8E70D
S11339E01A0412F4403214F00F052A43BCF1010505
S11339F05FF0004675432A435FF0FF3589000026D7
S1133A0017E0DFF878C75CF826C001FB0CFC1CFA51
S1133A1007FCBCEB000EBEF1000F01D5DEF1000E79
S1133A20AE4502D2754633003C007F1C102FE8D30C
S1133A30761C042E01D20027F8E7200310F470400E
S1133A40990511F4400108430243200110F0F000ED
S1133A50990411F44021084302431000BDE8F083A7
S1133A60E0B502910FF2552101910FF6A5010091E5
S1133A700FF611030FF2CD120FF2090104F07CFBD3
S1133A800EBD0000F8B504000D002068C0B204F0BB
S1133A903FFC0600002E02D14AF205709EE0206829
S1133AA0FDF729FC10F1010F02D14AF2057095E0EF
S1133AB0306830F48040306043F601403060F420D8
S1133AC003F052FD0700002F01D1042086E040F2EC
S1133AD003413800FDF7BAFE2F603E60381D210017
S1133AE03022FDF7D1FD002078660020B866002062
S1133AF0F86600203867002078670020B867002047
S1133B00F8670020C7F880000020C7F88400002070
S1133B10C7F88800DFF86806C7F88C000020C7F8EB
S1133B2090006068C0F30540C7F894000020C7F80F
S1133B30980000200AE017EB80010022C1F89C20C5
S1133B4017EB80010022C1F8BC20401C0828F2D3E6
S1133B500020C7F8DC000020C7F8E0000020C7F808
S1133B60E4000020C7F8E8000020C7F8EC000020BB
S1133B70C7F8F0005FF06050F060F768E168206912
S1133B80FFF7FCFE3843F0606069002805D0022886
S1133B902ED024D3032834D03CE0F06830F0806089
S1133BA0F060F06830F00070F060306850F08070C1
S1133BB03060306850F47F003060A068012831D153
S1133BC03068400040083060002030637FF00070AF
S1133BD0F06230684008400030600020F2BDF068B8
S1133BE030F08060F060F06850F00070F060DCE766
S1133BF0F06850F08060F060F06830F00070F060C1
S1133C00D3E7F06850F08060F060F06850F0007026
S1133C10F060CAE7286803F001F9002028604AF23E
S1133C200170DBE7A068002804D130684000400838
S1133C303060C9E7286803F0F1F8002028604AF2F0
S1133C400270CBE770B504000D00002D01D0002CEC
S1133C5002D14AF2067030E02868016851F001018F
S1133C6001600068002822D500261BE015EB8600C1
S1133C70D0F89C00002814D0D5F898000121B14058
S1133C8008420ED015EB8600D0F8BC20012101209B
S1133C90B040000410F47C1015EB8603D3F89C307C
S1133CA09847761C082EE1D30020C5F89800A06937
S1133CB003F0B4F80020A061002070BD2DE9F84F96
S1133CC0050000242E680800C01E00F0638140F641
S1133CD0FE57C01B3CD0401E58D0401E00F08880C8
S1133CE0401E00F09F80401E00F0DD81401E00F069
S1133CF0DC81401E00F0D380401E00F0DE80401EB8
S1133D0000F0FB80401E00F00781401E6BD0401E77
S1133D1064D0C01E00F01F81401E00F02881401EA8
S1133D2000F08581401E00F08D81401E00F0A481CA
S1133D30401E00F0AD81401E00F0B881401E00F02E
S1133D40D681401E00F02681401E00F00C820CE259
S1133D50002A02D14AF2077417E0F068C0F3014167
S1133D60DFF8103453F8211010F00F03DFF8086463
S1133D7056F823305943C0F3C07010F0010031FAF3
S1133D8000F06969B1FBF0F01060F0E1002A02D1A3
S1133D904AF2077421E01068002802D14AF2037441
S1133DA01BE0306850F001003060F068DFF8D41395
S1133DB00840DFF8D4130840DFF8D0130840DFF8D8
S1133DC0D0130840070011686869FFF7D7FD38432E
S1133DD0F0603068400840003060C8E1306850F05E
S1133DE001003060C3E13068400840003060BEE14B
S1133DF0002A02D14AF2077413E0F068400108D5A2
S1133E00F068800102D5032010600AE002201060EF
S1133E1007E0F068800102D50120106001E0002075
S1133E201060A4E1002A02D14AF2077436E0306837
S1133E3050F0010030601068002805D0022815D029
S1133E400BD303281BD023E0F06830F08060F060CF
S1133E50F06830F00070F0601CE0F06830F08060D2
S1133E60F060F06850F00070F06013E0F06850F01B
S1133E708060F060F06830F00070F0600AE0F06894
S1133E8050F08060F060F06850F00070F06001E085
S1133E904AF20174306840084000306067E1002A4B
S1133EA002D14AF2077407E03068002802D50020E6
S1133EB0106001E00120106059E1002A02D14AF2A9
S1133EC0077419E0306850F0010030601068012870
S1133ED004D1306840004008306009E010680028D0
S1133EE004D1306850F00040306001E04AF20274BE
S1133EF0306840084000306039E1002A02D14AF2BB
S1133F00077408E0F068C00103D54FF40040106066
S1133F1001E0012010602AE1002A02D14AF207746C
S1133F2018E03068002802D44AF2047412E01068E1
S1133F30B0F5004F04D1F06850F08070F06009E0F3
S1133F401068012804D1F06830F08070F06001E05E
S1133F504AF204740BE1002A02D14AF2077405E024
S1133F60100015F1DC011822FDF78EFBFFE00020A4
S1133F70C5F8DC000020C5F8E0000020C5F8E40026
S1133F800020C5F8E8000020C5F8EC000020C5F8C2
S1133F90F000ECE0686F0028FCD1D5F88800002818
S1133FA0F8D1D5F890000028F4D1980303D540F651
S1133FB0176081423AD13068002837D55FF0000A93
S1133FC01EE015EB8A00D0F89C00002816D0D5F826
S1133FD09800012111FA0AF108420FD015EB8A006A
S1133FE0D0F8BC200121012010FA0AF0000410F4DA
S1133FF07C1015EB8A03D3F89C3098471AF1010A18
S1134000BAF1080FDDD30020C5F89800306850F0ED
S1134010010030603068400040083060306850F083
S11340200040306030684008400030609FE0002A63
S113403002D14AF2077404E0F068C0F3C360401C84
S1134040106094E0002A02D14AF2077413E0306849
S113405050F001003060F06830F0F040F060F0683B
S11340601168491EC90611F0F0410843F060306838
S11340704008400030607AE0002A02D14AF2077416
S113408005E0D5F89400000410F47C1010606EE094
S1134090002A02D14AF2077404E01068C0F3054014
S11340A0C5F8940063E02C2461E060E0002A02D1AA
S11340B04AF207741AE05FF0000A14E01068012164
S11340C011FA0AF110EA014010F47C1F09D015EB33
S11340D08A005168C0F89C1015EB8A009168C0F8FA
S11340E0BC101AF1010ABAF1080FE7D33FE0002A25
S11340F002D14AF2077435E0D5F89400000410F4B4
S11341007C1050F00047D2F80080D2F80490D2F826
S113411008B05FF0000A23E03B0001224946280072
S113412000F038F8F168C1F3C361082906D3010A25
S11341308BF800101BF1010B19F101098BF8000039
S11341401BF1010B19F10109D5F8E000401CC5F879
S1134150E000D5F8E800401CC5F8E8001AF1010AAF
S1134160C245D9D303E02C2401E040F60924200001
S1134170BDE8F28FE4330300F43303003434030066
S1134180FFFF0080F0FFFC7FFF0F3FFFFFF0CFFF3A
S11341900FFFF3FF2DE9F04104000D001E00276816
S11341A0002A4BD0D4F89400D4F8981091EA000F68
S11341B035D03868002832D5002E30D05FF00008A2
S11341C026E0D4F89400D4F898104840012111FA5C
S11341D008F108421AD014EB8800D0F89C0000289B
S11341E014D014EB8800D0F8BC20D4F8980030FA2E
S11341F008F010F00101012010FA08F0000410F496
S11342007C1014EB8803D3F89C30984718F101080C
S1134210B8F1080FD5D3D4F89400C4F898002878DE
S1134220F968C1F3C361082902D3697851EA00200F
S1134230F96A8901FCD580B230437863F86A800357
S1134240FCD5B86BF96A51F40031F962F96A0903D3
S113425008D5F96A51F40021F962D4F8E410491C34
S1134260C4F8E410F96A090108D5F96A51F000614B
S1134270F962D4F8F010491CC4F8F01080B2BDE81B
S1134280F08100002DE9F8430C0015000026876931
S1134290D7F80080006A10F480390020060027E077
S11342A00022D7F89400000410F47C1050F000436E
S11342B0D2B221003800FFF76DFFB9F1000F04D02E
S11342C0D7F8E810491CC7F8E810D7F8E010491CE3
S11342D0C7F8E010D8F80C10C1F3C361082904D35F
S11342E080B2010A2170641C761C2070641C761C48
S11342F0AE4209D2D8F8000010F0004050EA09009C
S11343000028CDD00122CCE73000BDE8F2830000C4
S11343102DE9F0410C001500866937685FF000084C
S11343201BE0D6F89400000410F47C1050F0004315
S1134330012221003000FFF72DFFF868C0F3C360AD
S1134340082802D3641C18F10108641CD6F8E8009C
S1134350401CC6F8E80018F10108A845E1D340461E
S1134360BDE8F081C16E026F914204D2016FC26E4A
S1134370891A491E06E0C169C26E891A026F002AB1
S113438000D1491EC26952088A4201D2C06941085B
S113439008007047D0F88010D0F88420914205D3EB
S11343A0D0F88010D0F88420891A03E0016AD0F88C
S11343B08420891A026A52088A4201D2006A41089A
S11343C00800704770B4416A4C0104F1804414F54C
S11343D010440025E5804C0104F1804414F5104498
S11343E00125A5604C01DFF8F856066806F2380688
S11343F066514C0104F1804414F510440025A58055
S11344004C0104F1804414F510440025E5604C018E
S113441004F1804414F51044DFF8C85625614C01BA
S113442004F1804414F510440125A5824C0104F1E3
S1134430804414F510440025A5614C0104F1804426
S113444014F51044DFF8A0562D68E5824C0104F100
S1134450804414F51044DFF890562D68E5834C0130
S113446004F1804414F510440A25A583002B02D0DE
S1134470DFF878462170DFF874462170C16A4C0178
S113448004F1804414F5104440F20225E5804C0107
S113449004F1804414F510440425A560002A09D0D1
S11344A0D0F88440C56F15EB84044D01DFF8306605
S11344B0AC5105E04C01DFF8285600F28C06665139
S11344C04C0104F1804414F51044A2804A0102F125
S11344D0804212F510420024D4604A0102F1804265
S11344E012F51042006800F234001061480100F136
S11344F0804010F5104000228282480100F1804083
S113450010F5104000228261480100F1804010F54E
S113451010401A005204520CC282480100F180403B
S113452010F510401A005204520CC283480100F1E5
S1134530804010F5104008228283002B02D0DFF85F
S1134540AC05017070BC704700B585B00391DFF80D
S1134550A01502910FF2B93101910FF28D21009152
S11345600FF201130FF2E1120FF2090103F0E8FE5A
S113457005B000BD2DE9F04182B004000025D4F857
S113458018800A0014F11C014046FFF77BFA05006D
S1134590002D01D0280062E000A9D8F8000003F043
S11345A0C1FE0600002E06D1E06902F037FC0020AF
S11345B0E061142053E0E5692F68D8F81800800002
S11345C0FDF738F9A866A86E002806D1E06902F064
S11345D025FC0020E061042041E0D8F81C008000A4
S11345E0FDF728F9E867E86F00280BD1E06902F0CD
S11345F015FC0020E061A86E02F010FC0020A86603
S113460004202CE040F20141A86EFDF71FF940F2AE
S11346100241E86FFDF71AF9002713E0009850F8FB
S1134620270003F0B5FA15EB8701C86422000FF2E6
S11346304941009850F82700FDF7A4FE15EB8701C7
S113464048637F1CB742E9DB22000FF26D41686AC0
S1134650DFF8A03453F82000FDF794FE0020BDE8F5
S1134660F6810000F8B504000D00002D01D0002CE7
S113467002D14AF2067066E02868016811F000462B
S1134680016851F00101016000210163002E22D074
S113469000261BE015EB8600D0F89C00002814D0FF
S11346A0D5F898000121B14008420ED015EB8600E0
S11346B0D0F8BC2001210120B040000410F47C108B
S11346C015EB8603D3F89C309847761C082EE1D36B
S11346D00020C5F898006E6ADFF81C0400213154EC
S11346E0EE6ADFF814040021315400220421686AC0
S11346F0DFF8003413F8200003F07CFA00A968689E
S113470003F010FE060000270BE015EB8700C26CD7
S113471015EB8700416B009850F82700FDF732FE37
S11347207F1CB742F1DBE06902F078FB0020E06116
S1134730A86E02F073FB0020A866E86F02F06EFB1F
S11347400020E8670020F2BD70B582B00400002CA0
S113475002D14AF2077046E000A9606803F0E2FD66
S11347600500002607E001220421009810F8260025
S113477003F040FA761CAE42F5DB01220421606AA4
S1134780DC4B13F8200003F035FA2068016851F07F
S113479001010160016BD94A1143016301684908B1
S11347A049000160D648006850F00200D44908600E
S11347B0606AD4490870606ACF4900224254E06AB2
S11347C0D0490870E06ACC490022425400230022F8
S11347D000212000FFF7F6FD606AC749A26A52F083
S11347E080024254002076BD2DE9F04182B01400CD
S11347F0C5692E68E869D5F890200092AB6E2F6FDA
S11348006A6A5FF0000815E053F827207F1C87428E
S113481000D30027D6F80CC0CCF3C36CBCF1080F4E
S113482004D35FEA122C81F800C0491C0A70491CA9
S113483018F10108A04507D2EA6E9742E4D1424636
S11348403900B14803F04EFE2F67B4EB0804002C86
S11348505AD0009810F00300002855D13068002881
S113486031D5D5F89400D5F8981091EA000F2AD0E4
S1134870002722E0D5F89400D5F89810484001218B
S1134880B940084218D015EB8700D0F89C000028E6
S113489012D015EB8700D0F8BC20D5F89800F8406A
S11348A010F001010120B840000410F47C1015EB55
S11348B08703D3F89C3098477F1C082FDAD3D5F8A8
S11348C09400C5F89800D5F8900050F00100C5F8A0
S11348D090002800FFF746FD844200D22000211AF0
S11348E0696668670021C5F88810D5F89410090432
S11348F011F47C11854A1143C5F88C100300002281
S113490004212800FFF75EFD4046BDE8F681000063
S11349102DE9F8430400E5692E682F6AEB6FD5F89A
S11349208080E86A5FF000091FE091F800C0491C2C
S1134930D6F80CE0CEF3C36EBEF1080F04D391F8A1
S113494000E05EEA0C2C491CD5F894E05FEA0E4EB8
S11349501EF47C1E1FFA8CFC5CEA0E0C5CF0004C0E
S113496043F828C0804619F10109914508D218F18D
S11349700100B84200D30020D5F884C06045D4D1EA
S1134980D5F8DCC0C5F88080D5F89000D5F8DC10E7
S11349908C45F5D1002A6BD010F00300002867D1B4
S11349A02800FFF7F7FC0700606AC00305D528005C
S11349B0FFF7D8FCB84200D20700002F58D0306867
S11349C0002837D5D5F89400D5F8981091EA000F4F
S11349D030D05FF0000826E0D5F89400D5F89810A0
S11349E04840012111FA08F108421AD015EB880059
S11349F0D0F89C00002814D015EB8800D0F8BC2017
S1134A00D5F8980030FA08F010F00101012010FAEE
S1134A1008F0000410F47C1015EB8803D3F89C30E4
S1134A20984718F10108B8F1080FD5D3D5F89400C8
S1134A30C5F89800D5F8900050F00200C5F8900031
S1134A4000206866C5F88870686A616AC90307D57A
S1134A506F673B00042204212800FFF7B3FC07E042
S1134A60002068673B00042200212800FFF7AAFC0D
S1134A704846BDE8F2830000C0690168CA6AD0F8FC
S1134A80DC305B1CC0F8DC30130108D5CB6A53F072
S1134A900063CB62D0F8F0305B1CC0F8F030120336
S1134AA008D5CA6A52F40022CA62D0F8E410491C3C
S1134AB0C0F8E4107047000080B5C069416A144A28
S1134AC01170002304220421FFF77CFC00A9114883
S1134AD003F0E0F80221009803F054F901BD00004E
S1134AE0009000400004FF1F0000FF1F1B800040D7
S1134AF0BD3C0000A43303000010024000000B0B77
S1134B003C8004401A80004078330300FFFF00809B
S1134B101F8000409433030010B584B0040003F0F8
S1134B20B8FD002810D100200290994801900FF29E
S1134B30712000900FF265230FF2E9120FF21101B8
S1134B40200004F0ABF901E05FF0FF3004B010BDC9
S1134B502DE9F04105000E001700B8465C2002F074
S1134B6003FD0400002802D15FF0FF30D7E04FF4CA
S1134B707D712000FCF76AFE6C60FDF759F9B8F10D
S1134B80000F7CD13A003100280003F0E1FD002839
S1134B9000F0A580FDF772FB200002F03FF95FF002
S1134BA0FF30BCE07B4A52F82120024240F08F8063
S1134BB00022D8F8003013F07063B3F1807F15D071
S1134BC0B3F1007F09D0B3F1407F18D0B3F1806F07
S1134BD026D0B3F1006F34D044E014EB81031B6A98
S1134BE0034314EB810CCCF820303DE014EB81033B
S1134BF05B6B034314EB810CCCF8343034E014EBDE
S1134C0081031B6A034314EB810CCCF8203014EBB2
S1134C1081035B6B034314EB810CCCF8343023E049
S1134C2014EB81035B6B034314EB810CCCF834303D
S1134C3014EB81039B6C034314EB810CCCF84830D8
S1134C4012E014EB81031B6A034314EB810CCCF8D0
S1134C50203014EB81039B6C034314EB810CCCF8E0
S1134C60483001E05FF0FF32002A30D114EB8102BA
S1134C70D268104314EB8101C86018F10408D8F815
S1134C80000000283FF47EAFD8F8000000281ED5AD
S1134C90D8F80000C0F35211012098F8002012F057
S1134CA01F029040052912D23B4A52F821200242A9
S1134CB00DD1D8F8002012F0706F7FF473AF14EBAD
S1134CC08102D268104314EB8101C860D5E7FDF777
S1134CD0D5FA200002F0A2F85FF0FF301FE00020B8
S1134CE018E02D4951F8201014EB8002D2681143CA
S1134CF0294A42F82010274951F8201014EB800269
S1134D00126A14EB80035B6B1A431143214A42F885
S1134D102010401C0528E4D3FDF7B0FA0020BDE8BC
S1134D20F081000038B505006C68FDF781F80022B9
S1134D304FF44271280004F0BEF8002240F206311C
S1134D40280004F0B8F8002018E0134951F82010A6
S1134D5014EB8002D26891430F4A42F820100D49A7
S1134D6051F8201014EB8002126A14EB80035B6B81
S1134D701A439143074A42F82010401C0528E4D303
S1134D80FDF77CFA200002F049F8002032BD000053
S1134D9091880000F41BFF1FE01BFF1F00207047D9
S1134DA000207047FEB504000D002420FDF7B8FA7A
S1134DB00600002E02D14AF601602AE024213000C8
S1134DC0FCF7B8FB2A003100200004F08EFA07003B
S1134DD0002F18D12A003100200004F0D5FE07006E
S1134DE0002F10D102960FF2914001900FF28540EE
S1134DF000900FF225430FF255320FF219012000F3
S1134E0004F04CF80700002F02D0300002F006F83E
S1134E103800FEBD2DE9F84F04008946924620680B
S1134E20456A2068806801E019F101090100481C05
S1134E3009780029F8D148460078002850D1BAF101
S1134E40000F02D14AF603604DE12868002839D1E9
S1134E501420FDF707FA28602868002802D14AF6D2
S1134E60016040E10820FDF7FDF9686068680028EA
S1134E7005D1686801F0D2FF4AF6016033E1286881
S1134E80DAF8001001606868002141602968200098
S1134E9004F02EFA8346BBF1000F16D16968200096
S1134EA004F074FE8346BBF1000F09D0286801F0BA
S1134EB0B5FF686801F0B2FF002028600020686038
S1134EC0584610E14AF604600DE1286801F0A6FF97
S1134ED0686801F0A3FF0020286000206860EFE705
S1134EE0002715F1080615F11008BAF1000F02D1D8
S1134EF04AF60360F7E02868002802D14AF6056004
S1134F00F1E0DAF80400002802D14AF60660EAE08B
S1134F10002700E07F1C022F0AD2494615EB8700C8
S1134F20806905F0C3FA0028F4D14AF60460DAE097
S1134F30002700E07F1C022F04D215EB8700806954
S1134F400028F7D1022F02D14AF60760CBE01C20DB
S1134F50FDF788F900900098002802D14AF6016B09
S1134F60C0E056F8270000283DD12020FDF77AF94B
S1134F7046F8270056F82700002802D14AF6016BAC
S1134F80ADE02C20FDF76EF948F8270058F827000B
S1134F90002802D14AF6016B9AE056F827000099DE
S1134FA0086058F827000099486000986060DAF8B3
S1134FB01400401C4000FDF755F956F82710C8604E
S1134FC0DAF8140056F82710C96811EB4000801C69
S1134FD056F82710086156F82700C068002805D144
S1134FE04AF6016B6DE05FF0FF307CE056F8270075
S1134FF056F82710C968416156F8270056F827105B
S1135000C968816156F82700076056F82700BAF886
S11350100210818056F82700BAF80010C18058F8B1
S11350202700DAF81810C16158F82700DAF80810D8
S1135030816058F82700DAF80C10C16058F827008E
S1135040076058F82700BAF80210818058F8270042
S1135050DAF80410491E816158F8270058F827101F
S11350608969416158F82700DAF81C100162DAF8FE
S11350702000002804D158F827000121416204E0EF
S113508058F82700DAF82010416256F8271020005B
S113509004F098FA8346BBF1000F0DD158F827109D
S11350A0200004F0F5FE8346BBF1000F1DD056F836
S11350B02710200004F013FB56F82700C06801F005
S11350C0ADFE58F8270001F0A9FE002048F827009B
S11350D056F8270001F0A2FE002046F827000098A9
S11350E001F09CFE5846BDE8F28F484605F000FAF0
S11350F0401CFDF7B7F815EB87018861002805D13E
S113510058F82710200004F073FFD0E7002006E0D1
S113511015EB8701896910F809204254401C10F8E6
S113512009100029F4D115EB870189690022425442
S11351309AF80200800706D4002241F201112000EF
S113514000F09AF8CFE70020CDE700002DE9F843FE
S113515005002868446A6F6814F1080614F1100801
S1135160002F25D15FF0000901E019F10109B9F11F
S1135170020F06DA56F829000028F6D04AF608602D
S113518047E06168280004F091FD002841D12168BE
S1135190280004F00CFA00283BD1606801F03EFEC0
S11351A000206060206801F039FE002020602FE0BC
S11351B03868D0F8009000227968280005F0A5F836
S11351C07968280004F014FF002822D139682800E7
S11351D004F085FA00281CD114EB8900806901F0E1
S11351E01DFE14EB8900002181613868C06801F05C
S11351F015FE386801F012FE786801F00FFE3800E1
S113520001F00CFE002046F82900002048F829008F
S11352100020BDE8F283000070B40B004068006811
S11352204469002C01D1002022E084694569641B93
S11352306410002C04D50569C668AD1B14EB650425
S11352405508A54211D254080FE0426912881A8009
S11352509B1C4269002515804269921C42610569C4
S1135260AA4201D3C2684261641E002CEDD1581ACF
S113527070BC704700207047F8B505000E0014009C
S113528068683100093942D041F2F802891A0ED017
S1135290491E12D0491E16D0491E1AD0491E1ED0CE
S11352A0491E22D0491E26D0491E2AD037E00022AA
S11352B04168280004F007FF4AE02200002128008A
S11352C004F001FF44E000224168280005F01DF8C5
S11352D03EE022000021280005F017F838E0002203
S11352E04168280004F061FF32E022000021280018
S11352F004F05BFF2CE000224168280004F0ABFFBF
S113530026E022000021280004F0A5FF20E015205B
S11353102060002060600820A060002018E02200C7
S11353203100280003F0E6FD0700002F03D040F60B
S1135330092087420BD122003100280004F03AFBF7
S113534040F60921884201D1380001E000E038002C
S1135350F2BD0000F8B5040080200F235FF0FF3792
S1135360022511E006FB05FC02FB0CFCBCEB010C66
S1135370BCF1000F04D4BC4502D2674628003300B8
S1135380761C112EEED36D00B5F5807F01D8012671
S1135390F7E7E16A31F00801E162E16ADFF86C2ABB
S11353A012EA0106C00110F47F403043591E09017E
S11353B011F0F001084350F46020E06202E005209F
S11353C005F0B2F8606A0007F9D5E06A50F0080009
S11353D0E062206B50F480102063F1BD406A40F21B
S11353E00731084201D0012000E00020C0B270471C
S11353F0026B0A40002AFBD01000704770B504000D
S11354000D0016000020286000213068C0B2FBF7B0
S1135410C3FF10F1010F02D140F60B203EE0DFF88C
S1135420F009E062E06AC001FCD40020C4F8C000C6
S11354305FF4813060602820A0625FF00110606436
S1135440DFF8D029B1682000FFF784FF606A10F00C
S113545003000028FAD14FF6FF713068C0B2FBF7A1
S11354609BFF10F1010F02D140F60B2016E04FF61E
S1135470FF702063DFF8A0096063E06A50F0006009
S1135480E062E06A0001FCD4606AC00301D5012037
S11354902860206B50F080002063002070BD70B540
S11354A004000D00287810F03F00DFF8701951F85F
S11354B02060002E04D12878002801D0012081E04A
S11354C0206B50F080002063606AC007FCD46868D9
S11354D0A06036F440066878800510F44000064366
S11354E06878022801D156F40016687804280DD192
S11354F016F44030B0F5003F04D136F4403656F48B
S1135500403603E036F4403656F40036606880B224
S11355106060E86800281BD016F44030B0F5403FC6
S113552001D056F40016A868002801D056F01006E1
S1135530E868022801D356F02006E86810F1010F4C
S113554006D06068E96850EA0140606056F00206DF
S113555000202060E660DFF8C8182000FFF748FF4D
S1135560012807D0206B40F4702050F00100206324
S1135570012027E0206B000605D5206B50F00110B8
S1135580206301201EE0206BC00306D5206B50F081
S1135590011020635FF0FF3014E016F4403F0CD09C
S11355A02069286116F44030B0F5803F05D1606968
S11355B06861A069A861E069E861206B50F00100AE
S11355C02063002070BD7FB504000D00002C01D0C5
S11355D0002D01D10C2030E0FCF72AFC082001F05A
S11355E0C3FF0600002E03D1FCF748FE042024E08C
S11355F040F211413000FCF729F903960FF2410003
S113560002900FF2691001900FF6F90000900FF666
S113561019030FF2E9020FF25D01200004F0A0FF6C
S11356200400002C03D135600020706002E03000DB
S113563001F0F4FBFCF722FE200004B070BD000072
S113564010B50400002C02D140F6012010E0606A7D
S1135650002802D140F60B200AE04168002902D05C
S113566040F60A2004E001F0D9FB0020606200202B
S113567010BD0000F8B50400002C01D10C203CE062
S11356802068002802D140F6012036E0456A002D4A
S113569002D140F60B2030E02E68002E02D140F6F5
S11356A00B202AE03068C0B204F0DEFF0700002FB0
S11356B002D140F60B2020E0FCF7BAFB6868002812
S11356C003D0FCF7DBFD2C2017E001206860FCF719
S11356D0D5FD4FF4017001F047FF0500002D01D105
S11356E004200AE040F212412800FCF7AFF865609C
S11356F0320029003800FFF781FEF2BD70B50400C6
S1135700002C01D10C2030E02068002802D140F6A2
S113571001202AE0456A002D02D140F60B2024E046
S11357202868002802D140F60B201EE00068C0B2B1
S113573004F09AFF0600002E02D140F60B2014E07C
S1135740FCF776FB6868401E686000280AD1DFF821
S1135750C006F062F06AC001FCD4606801F05EFB30
S113576000206060FCF78AFD002070BD2DE9F04F39
S11357708BB08046894617005FF0000BB8F1000F2C
S113578001D10C203FE3D8F80000002802D140F6F4
S1135790012038E3D8F80440002C02D140F601205F
S11357A031E3406A002802D140F60B202BE3056860
S11357B0002D02D140F60B2025E32868C0B204F086
S11357C053FF0600002E02D140F60B201BE3B9F173
S11357D0030900F00283B9F1060900F0EE8241F2F8
S11357E0F820B9EB000920D0B9F1010900F0F981E2
S11357F0B9F1010900F0BE82B9F1010900F001829A
S1135800B9F1010900F01182B9F1010900F06582D2
S1135810B9F1010900F07E82B9F1010900F0348286
S1135820B9F1010900F03A82EAE22A0021003000CD
S1135830FFF7E4FD8346BBF1000F40F0E38200274D
S11358405FF000080020099000200A905FF0000932
S11358500020089000208DF8000000208DF8010041
S113586000200190002002900020039000A9300045
S1135870FFF715FE002802D04AF6014BC2E20820C9
S11358808DF8000000208DF801004FF4D5700190D0
S1135890002002900020039000A93000FFF7FFFDD4
S11358A08246BAF1010F02DB4AF6014BAAE2BAF1D1
S11358B0000F08D104980199884202D04AF6014B9E
S11358C0A0E25FF0010905208DF8000000208DF8AA
S11358D0010000200190002002900020039000A904
S11358E03000FFF7DCFD8246BAF1010F02DB4AF615
S11358F0014B87E2BAF1000F3BD10498000F10F07E
S11359000700002837D0049810F4401F33D0052036
S11359108DF8000000208DF801005FF44010019024
S113592000200290002003905FF0000A052004F09C
S1135930FBFD1AF1010A00A93000FFF7B0FD0028B1
S113594002D04AF6014B05E00498002802D4BAF1CB
S1135950C80FEBDBBBF1000F40F054820498002821
S113596001D55FF001080498000104D501200890D6
S113597001E0012008900898002800F0F180372009
S11359808DF8000000208DF8010000200190002017
S113599002900020039000A93000FFF780FD8246AA
S11359A0BAF1010F02DB4AF6014B2BE2BAF1000F08
S11359B06AD55FF0000800275FF0000901208DF828
S11359C0000000208DF80100DFF858040190002049
S11359D002900020039000A93000FFF760FD00282A
S11359E002D04AF6014B0DE2049810F0C040B0F129
S11359F0005F01D15FF001090120099027208DF893
S1135A00000000208DF801004FF440600190002058
S1135A1002900020039000A93000FFF740FD002809
S1135A2002D04AF6014BEDE10498000ACE2801D1D8
S1135A30012000E00020C0B2002800F0918027205F
S1135A408DF8000000208DF801004FF450600190A3
S1135A50002002900020039000A93000FFF71FFDF2
S1135A60002802D04AF6014BCCE10498000AAA2887
S1135A7001D1012000E00020C0B2002870D0002035
S1135A80099001200A906BE069208DF80000002045
S1135A908DF8010000200190002002900020039066
S1135AA000A93000FFF7FBFC002802D04AF6014BA6
S1135AB0A8E1049810F4401F52D05FF0000A0520BA
S1135AC004F032FD1AF1010A37208DF8000000209D
S1135AD08DF8010000200190002002900020039026
S1135AE000A93000FFF7DBFC002802D04AF6014B86
S1135AF021E069208DF8000000208DF80100B9F143
S1135B00000F02D0C748019002E05FF440100190FA
S1135B10002002900020039000A93000FFF7BFFC92
S1135B20002802D04AF6014B05E00498002802D46C
S1135B30BAF1C80FC3DBBBF1000F40F06381BAF1C7
S1135B40C80F02DB5FF000090AE00127B9F1000F7A
S1135B5006D05FF000090498400001D55FF0010908
S1135B600998002801D0072020600A98002801D055
S1135B7008202060B8F1000F01D004202060002F1D
S1135B8006D002202060B9F1000F01D0032020606C
S1135B90B8F1000F08D0002F06D005202060B9F11D
S1135BA0000F01D00620206000212868C0B2FBF756
S1135BB0F3FB10F1010F02D140F60B2023E16A68D8
S1135BC0A9683000FFF7C6FB4FF6FF712868C0B222
S1135BD0FBF7E2FB10F1010F02D140F60B2012E1BA
S1135BE010E139003000FFF75AFC8246BAF1010F88
S1135BF001DB4AF6024BBAF1000F01D54AF6034B1A
S1135C0000E1002F02D15FF00C0B0DE0F06AC00937
S1135C1010F4FF7AF06AC0F30310401C00FB0AFA88
S1135C20A868B0FBFAF03860ECE0002F02D15FF016
S1135C300C0B28E03868002802D15FF00C0B22E03E
S1135C403000FFF7CBFB00281BD100212868C0B22D
S1135C50FBF7A2FB10F1010F02D140F60B2BD1E0B0
S1135C603A68A9683000FFF775FB4FF6FF712868A2
S1135C70C0B2FBF791FB10F1010F04D140F60B2BDE
S1135C80C0E040F60A2BBDE0002F02D15FF00C0B00
S1135C9003E07068C004C00C3860B3E0002F02D188
S1135CA05FF00C0B18E03000FFF798FB002811D1CF
S1135CB03868B0F5805F02D35FF00C0B0CE07068BD
S1135CC0400B4003706070683968C904C90C08430C
S1135CD0706001E040F60A2B94E0002F02D15FF0DF
S1135CE00C0B16E0B06AC0F3410ABAF1000F02D1FE
S1135CF0002038600DE0BAF1010F02D101203860B4
S1135D0007E0BAF1100F02D10220386001E04AF630
S1135D10054B77E0002F02D15FF00C0B29E0300037
S1135D20FFF75CFB002822D13868002806D1B06A4E
S1135D3030F00600B062B06AB0621AE03868012838
S1135D4008D1B06A30F00600B062B06A50F00200C8
S1135D50B0620EE03868022806D1B06A30F006005E
S1135D60B062B06AB06204E04AF6054B01E040F666
S1135D700A2B47E0002F02D15FF00C0B1CE0F06A05
S1135D8050F00060F062F06A0001FCD4306B000651
S1135D9005D5306B50F08000306300202060706ABD
S1135DA0C00305D52068002804D10120206001E04B
S1135DB0002020602068386024E01C203860042023
S1135DC078604FF41E70B86098F80800C00703D5D7
S1135DD0B86830F04000B86014E002213000FFF7EA
S1135DE007FB306B10F4E00F05D0306B50F4E0008B
S1135DF030634AF6044B306B50F03200306301E0FC
S1135E0040F6092B58460BB0BDE8F08F0F00F0FFA9
S1135E1000800001801A0600B3007F0044340300B0
S1135E2001000E00000030402DE9F8430C0015007D
S1135E30002802D15FF0FF3061E00168002902D13F
S1135E405FF0FF305BE04668002E02D15FF0FF3068
S1135E5055E0486A002802D15FF0FF304FE0006847
S1135E60002802D15FF0FF3049E00068C0B204F0BE
S1135E70FBFB0700002F02D15FF0FF303FE03068EA
S1135E80022808D03068032805D03068072802D0DB
S1135E903068082802D1786A4007FCD4A84608E094
S1135EA04A46311D200004F0E9FB19EB0404B8EB69
S1135EB00908B8F1000F21D0B8F5007F02D94FF4DA
S1135EC0007900E0C146311D19F10300800806E0A5
S1135ED07A6A1205FCD53A6A0A60091D401E002838
S1135EE0DED03A6B12F4E00FF2D0386B40F4E000ED
S1135EF050F0200038635FF0FF3000E02800BDE878
S1135F00F28300002DE9F0470C001500002802D1AF
S1135F105FF0FF3057E00168002902D15FF0FF30E5
S1135F2051E04668002E02D15FF0FF304BE0486A32
S1135F30002802D15FF0FF3045E00068002802D15C
S1135F405FF0FF303FE00068C0B204F08DFB070053
S1135F50002F02D15FF0FF3035E0A946B9F1000F00
S1135F6030D0B9F5007F02D94FF4007A00E0CA4678
S1135F7016F1040852462100404604F07FFB1AEB58
S1135F800404B9EB0A091AF103005FEA900A09E074
S1135F90786A4005FCD5D8F80000386218F1040886
S1135FA0BAF1010ABAF1000FD8D0386B10F4E00F3F
S1135FB0EED0386B40F4E00050F0100038635FF02E
S1135FC0FF3000E02800BDE8F08700007FB5040042
S1135FD00D00642001F0C8FA0600002E01D104204F
S1135FE03DE0E86800683060E86840687060E86830
S1135FF08068B060E868C068F060E8680069306193
S1136000E86840697061E8688069B061E868C069FF
S1136010F0612868306268687062A868B0622869B4
S1136020F06268693063A869B065E869F0650121C8
S113603016F13400FBF78CFD03960FF22900029051
S11360400FF6211001900FF2B95000900FF2C12306
S11360500FF23D220FF22D01200004F081FA04B06A
S113606070BD000010B50400606A016D002905D1FF
